:020000040800F2
:10000000600700243903000839200008791D000822
:100010003120000841040008A1230008000000006E
:10002000000000000000000000000000492000085F
:100030004904000800000000412000085120000889
:100040005303000853030008530300085303000838
:100050005303000853030008530300085303000828
:100060005303000853030008530300085303000818
:100070005303000853030008530300085303000808
:1000800053030008530300085303000853030008F8
:1000900053030008530300085303000853030008E8
:1000A00053030008530300085303000853030008D8
:1000B00029220008530300083922000853030008CE
:1000C00053030008530300085303000853030008B8
:1000D00053030008530300085303000853030008A8
:1000E00053030008530300080000000053030008F6
:1000F0005303000853030008530300085303000888
:100100005303000853030008530300085303000877
:100110005303000853030008530300085303000867
:100120005303000853030008530300085303000857
:100130005303000853030008530300085303000847
:1001400000000000000000000000000000000000AF
:100150005303000853030008530300085303000827
:100160005303000853030008530300085303000817
:100170005303000853030008530300085303000807
:1001800053030008530300085303000853030008F7
:1001900053030008530300085303000853030008E7
:1001A00053030008530300085303000853030008D7
:1001B00053030008530300085303000853030008C7
:1001C00053030008530300085303000853030008B7
:1001D00053030008530300085303000853030008A7
:1001E0005303000853030008530300085303000897
:1001F0005303000853030008530300085303000887
:100200005303000853030008530300085303000876
:100210001922000853030008530300085303000881
:1002200053030008530300085303000800000000B4
:1002300053030008530300080000000053030008A4
:100240005303000853030008530300085303000836
:100250005303000853030008530300085303000826
:100260005303000853030008530300085303000816
:100270005303000853030008530300080000000064
:100280005303000853030008530300080000000054
:10029000000000005303000800F002F800F03CF8F2
:1002A0000AA090E8000C82448344AAF10107DA45D1
:1002B00001D100F031F8AFF2090EBAE80F0013F0E7
:1002C000010F18BFFB1A43F001031847E025000097
:1002D00000260000103A24BF78C878C1FAD8520727
:1002E00024BF30C830C144BF04680C6070470000B0
:1002F0000023002400250026103A28BF78C1FBD82F
:10030000520728BF30C148BF0B6070471FB502F0CD
:10031000B8F91FBD10B510BD00F058F81146FFF731
:10032000F5FF02F091F900F076F803B4FFF7F2FF61
:1003300003BC00F07DF800000948804709480047E9
:10034000FEE7FEE7FEE7FEE7FEE7FEE7FEE7FEE785
:10035000FEE7FEE704480549054A064B70470000E2
:100360003921000899020008600100246007002478
:1003700060030024600300244FF0000200B5134620
:1003800094469646203922BFA0E80C50A0E80C50B5
:10039000B1F12001BFF4F7AF090728BFA0E80C5066
:1003A00048BF0CC05DF804EB890028BF40F8042B5F
:1003B00008BF704748BF20F8022B11F0804F18BFCC
:1003C00000F8012B7047704770477047754600F082
:1003D0002BF8AE4605006946534620F007008546D7
:1003E00018B020B5FFF7B6FFBDE820404FF000067B
:1003F0004FF000074FF000084FF0000BAC46ACE8A0
:10040000C009ACE8C009ACE8C009ACE8C00921F0FB
:1004100007018D46704710B50446AFF300802046B3
:10042000BDE81040FFF781BF004870471800002466
:1004300001491820ABBEFEE726000200704700000D
:10044000FEE7000000000000704700000000000010
:10045000EFF3108072B600BFFEE70000000000005E
:10046000B0B5044600F014F940F200010546C2F2AE
:100470000041621C097818BF0C4400BF00F008F965
:10048000401BA042FAD3B0BD2DE9F04F86B00F68F3
:100490000290002F00F0E78002988C4600F126427F
:1004A0000A2102F1FF7342F20042C5F602024FF048
:1004B000000990424FEAB32208BF0921092A4FF0F0
:1004C000010238BF4FEAB32101264FF0000A4FF076
:1004D00000080091CDF804C00EE000BFDCF8007009
:1004E00008F1010837FA06F10AF1020A06F10106DD
:1004F00009F1040900F0B780701E02FA00FE17EA45
:100500000E01EBD0DCF804B00491BBF1120F00F245
:10051000A38002FA0BF717F0061F00F09D80029CE3
:10052000032101FA0AF2A368DCF80C709343D1436B
:1005300007FA0AF21A43A26062684FEA1B134FEAF5
:10054000480522EA0E0283401A4362604BF0100312
:10055000E268122BDCF8083002EA010203FA05F324
:10056000039142EA0302E26014D16FF0030109F043
:100570001C0701EA50020F212244B940D2F820E0C2
:10058000DCF810302EEA0101BB40029C19431162D5
:10059000DCF804B00BF003012268039BA9401A4069
:1005A0005FEACB0341EA02012160DDF804C04FF0AD
:1005B0000102049C92D544F2F44240F2084EC5F682
:1005C0000202C5F6000E0F27116841F0020111600A
:1005D000116801F00201059120F00301059A09F06C
:1005E0000C024FF0B04051F80E309740BB43009FD3
:1005F00007FA02F21A4341F80E2040F2040EC5F643
:10060000000EDEF87C10DCF8042041EA0403D70376
:1006100058BF21EA04039703CEF87C30DEF880103F
:1006200041EA040358BF21EA0403D702CEF8803020
:10063000016841EA040358BF21EA040392024FF023
:1006400001020360DEF8001041EA040358BF21EA0A
:100650000403CEF8003041E70321554601FA0AF7BA
:10066000029CF94372E706B0BDE8F08F000000007D
:10067000002A08BF090481617047000000000000E3
:1006800041F20000C5F600400068000C7047000011
:1006900040F25C10C2F200400068704700000000A9
:1006A00040F2000040F25C11C2F20040C2F2004190
:1006B00000780A68104408607047000000000000DD
:1006C00080B5032000F0A8F800F00AFA44F21841BF
:1006D00042F29C63C5F60201C0F600030A68C2F349
:1006E0000322096801F00F019A5C595C02F01F02B5
:1006F000D04040F20C02C2F2004201F01F0120FA89
:1007000001F1116040F20801C2F2004108600020CE
:1007100000F00AF800281CBF012080BD00F02CF872
:10072000002080BD0000000070B540F20006C2F25B
:1007300000463178E1B1044640F20800C2F20040C0
:100740004FF47A72B2FBF1F10068B0FBF1F000F007
:10075000B3FC0F2C4FF0010508D838B94FF0FF302B
:1007600000222146002500F027F87460284670BD5D
:10077000012070BD0000000081B044F2F440C5F6D5
:100780000200016841F002010160006800F002000F
:100790000090009801B07047002848BF704700F0F3
:1007A0001F01012202FA01F14EF200124009CEF2BD
:1007B000000242F82010704770B54EF60C5C4FF006
:1007C000FF36CEF2000C00F16045DCF80030C3F3D8
:1007D000022E8EF00703042B28BF0423BEF103046E
:1007E00006FA03F321EA030100F00F0338BF0024E7
:1007F000043BB0F1FF3F634406FA04F003F10C033D
:1008000001FA04F1C8BF05F5644322EA0000084379
:100810000001187070BD00004EF60C514FF6FF033A
:10082000CEF200010A681A4060F30A2242F08060AA
:1008300040F0FD7008607047B0B544F60C05C5F691
:10084000020529684907296805D401F00701081A3B
:1008500018BF0120B0BD21F0070108432860FFF751
:1008600017FF044655F8080C800407D4FFF710FF63
:10087000001BB0F57A7FF5D90120B0BD0020B0BDD6
:100880002DE9F04381B0002800F0268142F20008F3
:100890000446C5F200288946D8F8000000F00F0091
:1008A00088420ED2D8F8000020F00F0040EA09007C
:1008B000C8F80000D8F8000000F00F00484540F0EC
:1008C0000B81206844F218474107C5F602070AD594
:1008D00021693A6802F07002914204D93A6822F024
:1008E00070021143396001070AD561697A6802F024
:1008F0007002914204D97A6822F070021143796043
:10090000C1060AD5A1697A6802F4E062914204D96D
:100910007A6822F4E0621143796081060AD5E169C0
:10092000BA6802F07002914204D9BA6822F07002EB
:100930001143B96010F002010AD0E2683B6803F08D
:100940000F039A4204D93B6823F00F031A433A601D
:10095000C20743D0386820F47061D4E9010203284B
:1009600041EA0201396007D002280BD157F8181C60
:10097000890340F1B18010E057F8181C890140F15B
:10098000AB800AE0012857F8181C03D1C90540F1D3
:10099000A38002E0490740F19F8057F8081C21F02E
:1009A0000701084347F8080CFFF772FE064641F2BC
:1009B000883500BF57F8080C616800F03800B0EBCC
:1009C000C10F08D0FFF764FE801BA842F2D90320B4
:1009D00001B0BDE8F083206800F0020151B1E16888
:1009E0003A6802F00F02914204D23A6822F00F02F4
:1009F00011433960D8F8001001F00F0149450DD9B5
:100A0000D8F8001021F00F0141EA0901C8F80010E0
:100A1000D8F8001001F00F0149455DD141070AD512
:100A200021693A6802F07002914204D23A6822F0D9
:100A300070021143396001070AD561697A6802F0D2
:100A40007002914204D27A6822F0700211437960F8
:100A5000C1060AD5A1697A6802F4E062914204D223
:100A60007A6822F4E0621143796080060AD5E06971
:100A7000B96801F07001884204D2B96821F07001B0
:100A80000843B86000F02CF8396842F29C63C0F665
:100A90000003C1F303213A6802F00F02595C9A5C2B
:100AA00001F01F0120FA01F102F01F0040F20C02D8
:100AB00021FA00F0C2F20042106040F2040040F25D
:100AC0000802C2F20040C2F200420068116001B0A8
:100AD000BDE8F043FFF728BE012001B0BDE8F08378
:100AE00044F20041C5F602010869C0F3C2000328C0
:100AF0000FD002282BD078BB0868800649F200008E
:100B0000C0F2D03058BF70470968C1F3C101C84076
:100B100070478A6A886AC0F3051CCB6A486B03F089
:100B20000103BCF1000FC0F3CC0003FB00F000EEAA
:100B3000100AB8EE400A14D002F00302022A12D0C2
:100B4000A2B90868800614D49FED251A1EE047F666
:100B50004000C0F27D10704740F60010C0F23D002A
:100B60007047002070479FED1D1A0FE09FED1A1A85
:100B70000CE0086849F20002C0F2D032C0F3C100B4
:100B800022FA00F001EE100AB8EE411A02EE10CA85
:100B90009FED144AB8EE422A086B6FF35F2003EE14
:100BA000100A81EE021AB8EE433A086B00EE043ADE
:100BB000B7EE000AC0F34620013033EE000A21EE02
:100BC000000A01EE100AB8EE411A80EE010ABCEEEE
:100BD000C00A10EE100A70470024744A20BCBE4BB5
:100BE0000024744C00000039F0B581B0002800F0FA
:100BF00026810446007844F20046C007C5F6020686
:100C000012D0306900F03801B06A102905D01829D7
:100C10002BD100F00300022827D13068800303D5D0
:100C20006068002800F00B812078800777D5306954
:100C300010F03801B06A29D0182908BF5FEA807027
:100C400024D0E068316800283DD021F01901084324
:100C50003060FFF71DFD0546306840071DD4FFF7E3
:100C600017FD401B0228F7D98DE16068E8B3B0F5A5
:100C7000803F07D0B0F5A02F306840F0718140F47C
:100C800080203060306840F480306FE13068400789
:100C900003D5E068002800F0D280FFF7F1FC41F2B4
:100CA0000301884208D820697168402821F47C310A
:100CB00032D141F4003031E07068216920F0FE400B
:100CC00040EA01602AE021F001003060FFF7E0FC1B
:100CD000054600BF3068400721D5FFF7D9FC401B0F
:100CE00002284FF00300F5D9E1E1306820F48030AC
:100CF0003060306820F480203060FFF7C9FC054682
:100D0000306880037FF590AFFFF7C2FC401B64287A
:100D10004FF00300F4D9CAE141EA00307060207856
:100D2000C00651D5306900F03801B06A082905D0F5
:100D3000182918D100F00300012814D13068C0052B
:100D400002D5E06980287AD1FFF79AFC41F20301CD
:100D500088421CD8206A7168202821F0F84130D1DF
:100D600041F080402FE0E0690028306817D040F063
:100D700080003060FFF78CFC054600BF3068C0057E
:100D8000E2D4FFF785FC401B0228F7D9FBE0F068AE
:100D9000216A20F07C5040EA0160F06014E020F00D
:100DA00080003060FFF774FC054600BF3068C00566
:100DB0000AD5FFF76DFC401B02284FF00300F5D960
:100DC00075E141EA80607060207800073AD42078AD
:100DD00080064AD4207840075BD4656A65B33069E1
:100DE00000F03800182840F09980012DB16A306B6E
:100DF00025D001F00302A36A9A4220D1C1F3051164
:100E0000E26A91421BD10146226B6FF35F21013AE6
:100E1000914214D1C0F34621626B013A91420ED146
:100E2000C0F30641A26B013A914208D1C0F30660BB
:100E3000E16B0139884202D1002001B0F0BD0120F0
:100E400001B0F0BD60690028706F35D040F001003E
:100E50007067FFF71DFC0546706F8007B7D4FFF77A
:100E600017FC401B0228F7D98DE0A06900283068E4
:100E700042D040F480503060FFF70AFC054600BFC6
:100E800030688004A6D4FFF703FC401B0228F7D982
:100E900079E0D6F8000440F48070C6F80004FFF74B
:100EA000F7FB0546D6F80004C00515D4FFF7F0FBA4
:100EB000401B6428F6D966E020F001007067FFF758
:100EC000E7FB0546706F80077FF581AFFFF7E0FB1A
:100ED000401B0228F6D956E0A068002856D0012809
:100EE00006D00528306F40F0CB8040F0040030671A
:100EF000306F40F00100C9E020F480503060FFF70F
:100F0000C7FB0546306880047FF564AFFFF7C0FB80
:100F1000401B02284FF00300F4D9C8E0306820F0ED
:100F200080703060FFF7B4FB022D05460CD100BF86
:100F30003068800144D5FFF7ABFB401B02284FF01F
:100F40000300F5D9B3E000BF306880017FF574AFCE
:100F5000FFF79EFB401B02284FF00300F4D9A6E0E8
:100F600020F480303060306820F480203060FFF75B
:100F70008FFB0546306880033FF556AEFFF788FBD0
:100F8000401B6428F6D9032001B0F0BD306F20F07B
:100F900001003067306F20F004003067FFF778FB06
:100FA000054641F2883700BF306F80077FF515AFE7
:100FB000FFF76EFB401BB8424FF00300F4D976E018
:100FC00004F12807B06A40F2F33188438ECF08431A
:100FD000591E40EA02104FF47E42B06202EB4720F5
:100FE0006FF35F214FF4FE0280B2E36B0844A16B04
:100FF00002EB01414FF0FE4201F4FE0102EB0362FD
:10100000084402F0FE4108443063F06A4FF6F8717C
:1010100020F00100F062706BA26C884340EAC200CD
:101020007063F06A216C20F00C000843F062F06AF3
:10103000616C20F002000843F062F06A40F48030F6
:10104000F062F06A40F40030F062F06A40F4802010
:10105000F062F06A40F00100F062306840F08070A9
:101060003060FFF715FB0446306880013FF5E4AEC1
:10107000FFF70EFB001B02284FF00300F4D916E027
:1010800020F001003067306F20F004003067FFF778
:10109000FFFA054641F28837306F80073FF59DAE75
:1010A000FFF7F6FA401BB8424FF00300F4D901B045
:1010B000F0BD000000000000411E0020B0EB116FE9
:1010C00001D0012070474EF21002F023CEF2000250
:1010D00051604EF62351CEF200010B700721906053
:1010E0001160704700000000704700000000000021
:1010F0007047000000000000704700000000000082
:1011000010B590F83C20012A01D1022010BDCB6817
:1011100048F2FF7ED1E901C223F47C5322F47052DD
:10112000CFF6F07E1A430CEA0E03D1F800C042EA73
:10113000030E2CF477230A6943EA0E0322F4762285
:10114000D0F800E01A434B691A434EF4806322F44E
:10115000742C40F20042C4F201028C6993428A6A04
:1011600022F470224FF0010342EA0C0280F83C3076
:1011700042EA044310D140F2000C23F07C724B6A27
:10118000CFF6F04CCC690CEA03531A4324F00073F9
:10119000096A1A4342EA01030021CEF8443080F87C
:1011A0003C10084610BD0000B0B590F83C20012A64
:1011B0004FF0020255D0012380F83C3080F83D20EA
:1011C00040F2004C0268C4F2010C42F480636345B3
:1011D0005368D2F808E002BF23F470034C6823433D
:1011E00040F6FF340D68C4F2000423F07003A242FD
:1011F00043EA0503536012DD4FF6FF73C4F20003A8
:101200009A421CDC40F60043C4F200039A421DD00F
:1012100041F60003C4F200039A4217D01BE0B2F17A
:10122000804F13D040F20043C4F200039A420DD025
:1012300040F60003C4F200039A4207D00BE0624577
:1012400004D00023C4F201039A4204D12EF080039B
:101250008968194391600022012180F83D1080F8CF
:101260003C201046B0BD000060B310B5044690F8B5
:101270003D0028B9002084F83C00204600F024F806
:10128000022084F83D002068211D00F0DDFF0120D0
:1012900084F8480084F83E0084F83F0084F8400059
:1012A00084F8410084F8420084F8430084F8440044
:1012B00084F8450084F8460084F8470084F83D002F
:1012C000002010BD012070477047000000000000A2
:1012D000704700000000000010B504460068016976
:1012E000890744BFC1685FEA81713FD4016949073A
:1012F00044BFC1685FEA417144D40169090744BF32
:10130000C1685FEA01714AD40169C90644BFC16876
:101310005FEAC1614FD40169C9071CBFC1685FEAB8
:10132000C17155D10169090644BFC1685FEA016115
:1013300056D40169C90544BFC1685FEA016157D449
:101340000169490644BFC1685FEA416158D4016937
:10135000890646BFC1685FEA816110BD6FF0200158
:1013600001612046BDE81040FFF7C6BE6FF00201E4
:101370000161012121778069800749D02046FFF76C
:10138000A7FF4BE06FF00401016102212177806922
:1013900010F4407F46D02046FFF79AFF48E06FF0F8
:1013A0000801016104212177C069800744D02046EB
:1013B000FFF78EFF46E06FF01001016108212177F1
:1013C000C06910F4407F41D02046FFF781FF43E021
:1013D0006FF001010161204600F0C6FC2068A1E722
:1013E0006FF0800101612046FFF782FE2068A0E7D0
:1013F0006FF4807101612046FFF776FE20689FE759
:101400006FF040010161204600F0B2FC20689EE7C9
:10141000204600F085F8204600F05AFB0020207797
:10142000206863E7204600F07BF8204600F050FB80
:1014300000202077206860E7204600F071F8204601
:1014400000F046FB0020207720685DE7204600F092
:1014500067F8204600F03CFB0020207720685AE720
:1014600080B586B000210591CDE9031144F2000258
:101470000068C4F201029042CDE9011118D040F693
:101480000001C4F20001884229D0B0F1804F43D15D
:1014900044F2E040C5F60200016841F0020101603B
:1014A0000068012100F0020000900098082025E06B
:1014B00044F2E040C5F60200016841F0100101600D
:1014C0000068042100F01000009000982020019096
:1014D00040F20040C5F6020000F5406013E044F21F
:1014E000E040C5F60200016841F0020101600068B9
:1014F000022100F00200009000988020019040F24C
:101500000040C5F60200022202920123CDE9033217
:10151000059101A9FEF7B8FF06B080BD00000000EC
:1015200070470000000000002DE9F04390F83C30C7
:10153000012B02D10220BDE8F0834FEAB202012361
:10154000052A80F83C3000F23F82DFE812F0060006
:1015500038007F00C300F0001D0103684FF68C7453
:10156000CFF6FE7443F6FF781A6AC4F2010822F03F
:1015700001021A621A46D3F820E0D3F804C04345AA
:1015800052F8185F0E6804EA05048F682EF0020511
:1015900044EA060447EA050E40F3238144F20005BD
:1015A000C4F20105AB4200F0278144F60005C4F205
:1015B0000105AB4200F0208144F2004518E10368C8
:1015C00048F6FF4CCFF6FF6C1A6A22F010021A623E
:1015D0001A461F6AD3F8048027F0200752F8186FC4
:1015E0000D6806EA0C068C6846EA052C40F20045B8
:1015F00043F48066C4F20105AE4247EA041E08D1F6
:10160000CC686FF040062EF0C00706EA041646EAE2
:10161000070E43F6FF74C4F20104A34240F30781AE
:1016200044F20004C4F20104A34200F0078144F62E
:101630000004C4F20104A34200F0008144F200441B
:10164000C4F20104A34200F0F980FFE0036840F215
:10165000004843F48065C4F201081A6A454522F443
:1016600080721A621A461F6AD3F8049027F4007732
:1016700052F81C6F8C6826F073060D6846EA050E5A
:1016800047EA042C09D1CC6840F2FF4524022CF42F
:10169000406724EA050646EA070C43F6FF74C4F2E5
:1016A0000104A34240F3E48044F20004C4F20104C4
:1016B000A34200F0E48044F60004C4F20104A34213
:1016C00000F0DD8044F20044C4F20104A34200F0C3
:1016D000D680DCE003681A6A22F480521A621A4645
:1016E0001F6AD3F8048027F4005752F81C6F0D6866
:1016F00026F4E6468C6846EA052C43F6FF76C4F2EB
:10170000010647EA043EB34240F3D38044F20004AA
:10171000C4F20104A34200F0D78044F60004C4F2EE
:101720000104A34200F0D08044F20044C8E0036802
:1017300043F6FF7CC4F2010C1A6A634522F480323E
:101740001A621A461F6AD3F804E027F4003752F8E9
:10175000546F8D6826F070060C6844EA060447EA68
:10176000054C40F3C88044F20005C4F20105AB42C9
:1017700000F0CC8044F60005C4F20105AB4200F055
:10178000C58044F20045BDE003681A6A22F4801265
:101790001A621A461F6AD3F8048027F4001752F819
:1017A000546F0D6826F4E0468C6846EA052C43F633
:1017B000FF76C4F2010647EA045EB34240F3BC8000
:1017C00044F20004C4F20104A34200F0C08044F6D5
:1017D0000004C4F20104A34200F0B98044F20044C2
:1017E000B1E00025C4F20105AB4205D040F200454E
:1017F000C4F20105AB4206D1CD682EF00C0725F0EE
:10180000040646EA070E434540F3B98044F200055A
:10181000C4F20105AB4200F0BD8044F60005C4F2FD
:101820000105AB4200F0B68044F20045AEE0002472
:10183000C4F20104A34201D0AB4207D14C6928F4A1
:1018400040658E6945EA840444EA8608C3F804804A
:10185000C3F818C04F6809699F63C3F820E09F6907
:1018600047F400679F619F6927F480679F6184E068
:101870000024C4F20104A34201D0434507D14C69BE
:1018800029F440558E6945EA041444EA0619C3F860
:101890000490C3F81CE04F680969DF63C3F820C0F7
:1018A000DF6947F00807DF61DF6927F00407DF61C0
:1018B00087E00024C4F20104A34205D040F20044B2
:1018C000C4F20104A34204D14C6928F4804545EADE
:1018D0008418C3F80480C3F81CC04F6809691F64EA
:1018E000C3F820E0DF6947F40067DF61DF6927F4B0
:1018F0008067DF6141E00025C4F20105AB4205D0FD
:1019000040F20045C4F20105AB4204D14D692EF40A
:10191000803747EA052EC3F804E05C654F68096923
:101920009F65C3F820C05F6D47F008075F655F6D76
:1019300027F004075F6544E00024C4F20104A342D9
:1019400005D040F20044C4F20104A34204D14C6922
:1019500028F4003545EA8428C3F80480C3F854C04D
:101960004F680969DF65C3F820E05F6D47F40067E1
:101970005F655F6D27F480675F65090221E00025E0
:10198000C4F20105AB4205D040F20045C4F20105A6
:10199000AB4206D12CF44077D1E90565374347EADD
:1019A000050CC3F804C09C614F6809695F63C3F804
:1019B00020E09F6947F008079F619F6927F00407AF
:1019C0009F61136819431160002180F83C1008469C
:1019D000BDE8F0830000000060B310B5044690F845
:1019E0003D0028B9002084F83C00204600F024F88F
:1019F000022084F83D002068211D00F025FC012014
:101A000084F8480084F83E0084F83F0084F84000E1
:101A100084F8410084F8420084F8430084F84400CC
:101A200084F8450084F8460084F8470084F83D00B7
:101A3000002010BD0120704710B584B044F20001B1
:101A40000068C4F20101884217D040F60001C4F2D8
:101A50000001884220D0B0F1804F36D144F2E840F6
:101A60001C24C5F60200016841F001010160006814
:101A700000F00100039003981CE044F2E840742455
:101A8000C5F60200816841F480318160806800F40D
:101A90008030019001980DE044F2E8401E24C5F624
:101AA0000200016841F004010160006800F00400D8
:101AB00002900298012100222046FEF77DFE20467A
:101AC00004B0BDE81040FEF767BE04B010BD0000D2
:101AD000704700000000000071B10A1F4FEAB20217
:101AE000032A20D8DFE802F002252B3100F13F0263
:101AF0001278012A2ED104E000F13E021278012A68
:101B000028D161B10A1F4FEAB202032A24D8DFE8C4
:101B100002F002272B2F022280F83F202BE0022226
:101B200080F83E2027E000F143021278012A11D10B
:101B3000E7E700F140021278012A0BD1E1E700F15A
:101B400041021278012ADCD004E000F1420212784E
:101B5000012AD6D001207047022280F843200AE0F3
:101B6000022280F8402006E0022280F8412002E0B4
:101B7000022280F84220026801F01F00012101FAD0
:101B800000F0116A814311624FF6FF71C4F2000147
:101B90008A42116A40EA0100106218DC40F2FF70CC
:101BA000C4F2000082422FDD40F60000C4F20000C3
:101BB000824242D040F60040C4F2000082423CD053
:101BC00041F60000C4F20000824236D041E043F604
:101BD000FF70C4F20100824240F20040C4F20100F2
:101BE0001CDD44F20001C4F201018A421DD044F61A
:101BF0000001C4F201018A4217D044F20041C4F24C
:101C000001018A4211D024E0B2F1804F15D040F298
:101C10000040C4F2000082420FD01AE00021C4F25A
:101C200001018A4201D0824213D142F48061536C97
:101C3000814243F4004050640BD107219068C0F208
:101C4000010101400020062918BFB1F5803F00D1F5
:101C50007047106840F001001060002070470000DD
:101C6000026801F01F0C012303FA0CFC136A23EA3B
:101C70000C0343F6FF7CC4F2010C13626245136A45
:101C8000136212DD44F20003C4F201039A4217D03A
:101C900044F60003C4F201039A4211D044F2004317
:101CA000C4F201039A420BD018E00023C4F20103EE
:101CB0009A4205D040F20043C4F201039A420DD18A
:101CC000D2F820C041F211131CEA030F06D1D2F85A
:101CD00020C040F244431CEA030F12D0D2F820C0C7
:101CE00041F211131CEA030F16D1D2F820C040F2C2
:101CF00044431CEA030F0FD1136823F00103136060
:101D00000AE0536C23F400435364D2F820C041F23C
:101D100011131CEA030FE8D04FEAB101042909D8D6
:101D2000DFE801F0030D12171C00012180F83E10BE
:101D300000207047012180F84310002070470121E6
:101D400080F83F1000207047012180F840100020EB
:101D50007047012180F8411000207047012180F870
:101D60004210002070470000704700000000000093
:101D70007047000000000000FEE7000000000000C7
:101D80002DE9F04186B044F2E0400026C5F602009D
:101D9000059640F6000400220168C5F6020441F0F1
:101DA0001001016001680D2701F0100100910099F8
:101DB000016841F004010160016801F00401009133
:101DC0000099016841F00201016000680D2100F0F6
:101DD0000200009000982046FEF74AFC04F50065DA
:101DE0004FF42851002228464FF42858FEF740FCB3
:101DF00001970127CDE90276049601AE20463146CF
:101E0000FEF742FBCDE901870220049028463146C7
:101E10000397FEF739FB06B0BDE8F0810000000033
:101E2000B0B596B001A82C210024CDE91444CDE929
:101E30001244CDE91044CDE90E44CDE90C44FEF73F
:101E40009BFA40F2780044F20001C2F20040C4F272
:101E5000010101603B21C0E901146321C1604FF41D
:101E60000071C0E9041480218161FFF7B5FD08B15C
:101E7000FEF7EEFA40F2780013A9C2F20040139484
:101E80001594FFF791F908B1FEF7E2FA40F27804F1
:101E90006020C2F200440C9032200D900CA9002268
:101EA00020460025CDE90E55CDE910551295FFF7D6
:101EB0003BFB08B1FEF7CCFA2068816921F00801EC
:101EC0008161CDE90155CDE9035505954FF40050E9
:101ED000CDE9060501A920460B95FFF711F908B1D8
:101EE000FEF7B6FA40F27800C2F20040FFF7B8FA07
:101EF00016B0B0BD0000000010B58AB040F2C400BA
:101F00000024C2F200404FF08041CDE90844CDE901
:101F10000644CDE90444CDE90244CDE90044016022
:101F20003B21C0E901146321C0E9031480218161D0
:101F3000FFF752FD08B1FEF78BFA40F2C40007A983
:101F4000C2F2004007940994FFF72EF908B1FEF79A
:101F50007FFA40F2C4046020C2F2004400903220B4
:101F60000190002002900490694604222046FFF769
:101F7000DBFA08B1FEF76CFA2068816921F4006190
:101F800081612046FFF76CFA0AB010BD0000000026
:101F900010B58AB040F2101040F60001C2F20040C5
:101FA0000024CDE90844CDE90644CDE90444CDE957
:101FB0000244CDE90044C4F2000101603B21C0E9C4
:101FC00001146321C1604FF40071016180218161BE
:101FD000FFF702FD08B1FEF73BFA40F2101007A927
:101FE000C2F2004007940994FFF7DEF808B1FEF74B
:101FF0002FFA40F210146020C2F200440090322008
:102000000190002002900490694604222046FFF7C8
:102010008BFA08B1FEF71CFA2068816921F400618F
:1020200081612046FFF71CFA0AB010BD00000000D5
:10203000FEE7000000000000FEE7000000000000D6
:102040007047000000000000704700000000000022
:10205000FEF726BB00000000B0B59CB044F61804A3
:1020600009A84C21C5F60204FEF786F902200025D6
:10207000CDE90755CDE90555CDE90355CDE9015524
:10208000FEF7DAFB40F22C400095C5F6000001682F
:1020900021F0010101600068012100F001000090C1
:1020A000206861F38F302060206800F44040009089
:1020B000009800BF206880045CBF20685FEA804011
:1020C00005D42068800402D420688004F2D5022060
:1020D000099001210C9140210D911290002413943C
:1020E000042114910F21CDE91510CDE917000C2022
:1020F000CDE9190409A81B94FEF776FD18B1EFF39A
:10210000108072B6FEE73F20019003200121CDE947
:1021100002040820CDE9040401A8CDE9064408948E
:10212000FEF7AEFB18B1EFF3108072B6FEE71CB0FD
:10213000B0BD00000000000080B54EF6885C42F2A1
:10214000000ECEF2000CC5F2002EDCF8001041F4B7
:102150007001CCF80010DEF8001001F00F01062924
:1021600006D8DEF80010072262F30301CEF8001053
:1021700044F200414EF67F53C5F60201CEF6F62337
:102180000A6842F001020A6000220A6108681840E9
:102190000860DEF80000000706D5DEF8000007231F
:1021A00063F30300CEF8000040F200208A61CA61A8
:1021B000C0F202200A6288620020C0F2FF10C862EA
:1021C00040F28020C0F2011008634A638863CA634A
:1021D00008644A64086820F48020086041F2000026
:1021E0000A66C5F600400068B2EB507F05D148F2A0
:1021F00008100121C5F20010016044F2000043F212
:10220000D201C5F2002001604FF000604CF8800C54
:1022100080BD00000000000040F27800C2F20040E3
:10222000FFF75AB80000000040F2C400C2F20040BC
:10223000FFF752B80000000040F21010C2F2004058
:10224000FFF74AB80000000010B540F6FF32C4F2B4
:102250000002904202680FDCB0F1804F1DD040F2C6
:102260000043C4F20003984217D040F60003C4F2C2
:102270000003984211D014E040F60043C4F200037A
:1022800098420AD040F20043C4F20103984204D0BD
:102290000023C4F20103984203D122F070024B687C
:1022A0001A434FF6FF7343F6FF7CC4F20003C4F2F7
:1022B000010C984214DD604522DD44F20003C4F2B3
:1022C0000103984234D044F60003C4F2010398425B
:1022D0002ED044F20043C4F20103984228D02BE0F0
:1022E00040F2FF73C4F20003984215DCB0F1804F56
:1022F0001ED040F20043C4F20003984218D01BE005
:102300000023C4F20103984212D040F20043C4F209
:10231000010398420CD00FE040F60003C4F2000322
:10232000984205D040F60043C4F20003984203D11E
:1023300022F44072CB681A4322F080024C69604557
:10234000D1F800E08B6842EA04020260C362C0F880
:1023500028E014DD44F20002C4F20102904219D0D8
:1023600044F60002C4F20102904213D044F200424B
:10237000C4F2010290420DD00121416110BD002242
:10238000C4F20102904205D040F20042C4F20102C0
:102390009042F1D1096901630121416110BD000042
:1023A000FEE70000000000002DE9F04F85B041F28B
:1023B000000A40F2780640F2101507464FF0010B74
:1023C0008024C5F6020AC2F20046C2F2004500218E
:1023D00017F831004FEAC109F0B949F00100385C43
:1023E000D0B949F00200385CB0B949F00300385C5C
:1023F00090B949F00400385C70B949F00500385CC8
:1024000050B949F00600385C30B949F00700385C33
:10241000002800F0108100BF01914FF4005101220B
:102420005046FEF725F940F2C4080421C2F20048E4
:102430004046FFF751FB4FF49670FEF711F8042168
:102440004046FFF70DFC4FEACB0004904FF40071BB
:1024500001225046FEF70CF94FF40061002250466D
:102460004FF0000BFEF704F900213046FFF734FB74
:1024700004212846FFF730FB0498FDF7F1FF002107
:102480003046FFF7EDFB04212846FFF7E9FB4FF448
:10249000005100225046FEF7EBF804214046FFF7BA
:1024A0001BFB4FF49670FDF7DBFF04214046A0466E
:1024B00040F21004C2F20044FFF7D2FBCDF80890BE
:1024C00009E000BFDDF80CB0DDF808900BF1010B5E
:1024D000BBF1080F5ED0CDF80CB00BEB09004FF04C
:1024E000080B049022E000BF4FF400710022504618
:1024F000FEF7BEF84FF4006100225046FEF7B8F830
:1025000000213046FFF7E8FA04212846FFF7E4FAF5
:102510000820FDF7A5FF04212846FFF7A1FB0021B5
:102520003046FFF79DFBBBF1010BCBD004984FEA7F
:1025300058012278385C00EA08090020B0EB580FF7
:10254000884608BF4FF080089145CDD0B9FA89F090
:102550004FF4005142095046FEF78AF84446D046EF
:1025600040F2C40A0421C2F2004A5046FFF7B4FA0E
:102570004FF49670FDF774FF04215046C246A04602
:1025800040F21004C2F20044FFF76AFB84F80090A6
:10259000AAE700BF4FF40051012250464FF0010B53
:1025A000FEF766F8444640F2C408C2F2004804212F
:1025B0004046FFF791FA4FF49670FDF751FF042162
:1025C0004046FFF74DFB4FF4007101225046FEF7E5
:1025D0004FF84FF4006101225046FEF749F8002100
:1025E0003046FFF779FA04212846FFF775FA4FF4D1
:1025F0001270FDF735FF04212846FFF731FB00215B
:102600003046FFF72DFB4FF4005100225046FEF7F5
:102610002FF804214046FFF75FFA4FF49670FDF75C
:102620001FFF04214046FFF71BFB019901314029A0
:102630007FF4CEAE05E00BF1010B013140297FF4B0
:10264000C7AE05B0BDE8F08FFEF73AF8FFF704FD1E
:10265000FFF796FBFFF79CFCFFF74EFCFFF7E0FB54
:1026600040F21010C2F20040FEF7FEFD42F2AC60F4
:10267000C0F60000FFF798FE4FF47A70FDF7F0FE09
:10268000FAE7F1EE100A4FF6FF71C0F2C03120EA0E
:10269000010040F04070E1EE100A704700000000B9
:1026A0000102030401020304060708090000001FD9
:1026B000000C0000000000FF001E0000000003F0FE
:1026C000003E0000000007C0007E000000000F80F8
:1026D00000FE000000000F0001BE000000001E0010
:1026E000033F000000001E00023F000000001E002B
:1026F000043F000001801E00083F000001E00F1FA2
:10270000F807000001F00FFFFC0FC00001FC03FF01
:10271000FF87F00001FE03FFFF87F80001FF0FFFB6
:10272000FFC7F80001F0DFFFFFF8780001F07FFF3E
:10273000FFFC780001F83FFFFFFFF80001F07FFF8A
:10274000FFF8300000E0FFFFFFE3100000F0FFFFA4
:10275000FFC3100000F1FFFFFFC31F000073FFFF66
:10276000FFC11FC00027FFFFFFE13E800027FFFFE2
:10277000FFF17C80003FFFEFFFF5FC80007FFFE36F
:10278000FFFFF900009FFFF1FFFFF80001FFFFF8D6
:102790007FFFFE0001FFF3F807FFDC0001FFD80018
:1027A00001FDFC0001FFCC0000FCFC0001FFEE007D
:1027B00000F9F80001FFC00010FDF80001FFF8006B
:1027C0007CFFF80000FFFE00FE7FF800007F7F0125
:1027D000807CF800007F670000F8780000FF4E0062
:1027E00000F8F80000FFD00000F8F800019FC900D1
:1027F00000DDF800019FC8000087FC0000DFC01E5C
:102800000101FC00007FC0360181FE00003FC01CBA
:102810000101FE00003FC0000101FE00003FC000BA
:102820000201F600003FC0000201E000003FE000AE
:102830000201E0000037F0000602C0000037F80097
:102840000F0080000023FE00370480000003FFE338
:10285000FCC8C0000001FFFF8870C0000000BFFE80
:102860003020C00000001E79F040C00000000EF7CC
:10287000E080C000000007FFE080C00000001EFFF5
:10288000C000C000000039FE4000C000000063F836
:102890004000C0000000C3E04000C000000097F806
:1028A000C0008000000087FC00008000D0280008E5
:1028B0000000002418000000D4020008E8280008E6
:1028C0001800002448070000F00200080000000083
:1028D00001000000100000000090D0030090D00321
:0828E0000200000000000000EE
:040000050800029954
:00000001FF
